LS113E0000002090A0C001100E1060100E12A910056S113E010E14E8100E15A000000001A5010CE045075S113E0204F1F8B8E0000104FED818C03FF25F98E5ES113E0300400ED818C045025F98EE33BBF040D1AD6S113E0405010CE0450BDE10227FB108E8000D6098BS113E0508EE0023AF60405C4F83404E684EAE0F7F4S113E0600405B6E001B7040F960C8401B7040196C9S113E0700B7F0407850227037C04078401B704008FS113E080960B8540270671400405200472BF0405E1S113E09071800405F60405E724BDE2DC4D263E96B6S113E0A00A2709BDE2F88415810426310F0AC60146S113E0B0F7040C0F08BDE2DC4D2622BDE31DC602A9S113E0C0F7040C960084918EE006A184270C30049AS113E0D06D8426F686BF97082014AD98029708C66BS113E0E007F7040C4D27077A040F1026FFB5128D8DS113E0F0037EE03FC608F7040C7F03FF86FFB703E7S113E100FE39B603FF39C603F7040CBDE20A4D26F7S113E11018C604F7040CBDE2754D260DC605F704B8S113E1200CCE00208688BDE1B739C603F7040CBDC8S113E130E20A4D2618C604F7040CBDE2754D260DFFS113E140C605F7040CCE002086A8BDE1EC39CE0844S113E1500086E4BDE1B7BDE0F43934708E080012E6S113E160CE002010860200113831DC0610930424FES113E1700D4FBDE0F46D28BDE10227F920E112AE98S113E180E4C603F7040C96035F4424015CF704021DS113E190B704032603BDE2F88601B70404C604F7F6S113E1A0040CBDE2754D260DC605F7040CCE08001FS113E1B086F4BDE1EC35F03470C60F8E00008800A3S113E1C0A7A41A502006A6238800A7C0A6282BF6C9S113E1D0300126035A270A854027F1A6A488003572S113E1E0F086D09800A7A4BDE31520EF3470880012S113E1F0A7A41A502006A6C08800A723A6282BF699S113E200854027F8A6A4880035F034707F0402DC2AS113E210029E048C010027058C00802621B704038CS113E220F70404BE040DE104230F7D040027427C9FS113E23004027D04072702E004F704042029BE0435S113E2400D7F0403A3032B057C040320F7E3037D64S113E2500400270F740403240A7C04027D040726A7S113E26002EB045CF70404B60403A10222034F3555S113E270F0861035F034707D040227067110040511S113E280200472EF0405B6040534027D0401260659S113E29071200405200472DF0405B60405A1E027FBS113E2A008847FA7241E118A80A724B6040488004AS113E2B0A722B604038800A1212711A7238618BA30S113E2C0E0008800A7A4A628854027FAA6A4880011S113E2D084D9D600C510270284BF35F0C6078E7FC7S113E2E0FFB60405A724A6A488002A0A301F26F135S113E2F05A26EB8680394F398608BAE0008800A791S113E300A4A6286D24854027F8A6A4880085642641S113E310037F0403398D008D00347635F634708E16S113E320E33BDC0B8440C4C110A384270930066D91S113E3300226F58EE33BBF040D35F000004C0008C7S113E3400000014C00100040004F00050040014F48S113E35000090040414F000A0000814F00120000F4S113E360C14F0014000000000000003B8655B703B5S105E370F83B74S113FFF0E36CE36CE36CE36CE36CE36CE36BE01ADBS9