L
S113E0000002090A0C001100E10D0100E131910048
S113E010E1558100E161000000001A5010CE045067
S113E02086801F8B113D038E00004F5FED818C03B2
S113E030FF25F98E0400ED818C045025F98EE33B15
S113E040BF040D1A5010CE0450BDE10927FBF600A1
S113E050098EE0023AF60405C4F83404E684EAE0E2
S113E060F70405B6E001B7040FB6000C8401B70449
S113E07001B6000B7F0407850227037C0407840193
S113E080B70400F60405B6000B85402704CA4020F7
S113E09002C4BFCA80F70405D704BDE2DB4D2643A2
S113E0A0B6000A2709BDE2F78415810426357F00EE
S113E0B00AC601F7040C7F0008BDE2DB4D2624BD2F
S113E0C0E31CC602F7040CB6000084918EE006A19E
S113E0D084270D30046D8426F686BFB7000820150A
S113E0E0AD9802B70008C607F7040C4D27077A0459
S113E0F00F1026FFB0128D037EE043C608F7040C10
S113E1007F03FF86FFB703FE39B603FF39C603F763
S113E110040CBDE21F4D2618C604F7040CBDE27BB7
S113E1204D260DC605F7040CCE00208688BDE1CB34
S113E13039C603F7040CBDE21F4D2618C604F704C4
S113E1400CBDE27B4D260DC605F7040CCE002086DF
S113E150A8BDE20139CE080086E4BDE1CBBDE0FBF9
S113E1603934708E080012CE00206FE2ECC1ED81CC
S113E1706AE426F83502FC000610B30004240D4FAF
S113E180BDE0FB0D08BDE10927F920DA128601B7CD
S113E190040FAEE4C603F7040CB600035F44240185
S113E1A05CF70402B704032603BDE2F78601B70453
S113E1B004C604F7040CBDE27B4D260DC605F70426
S113E1C00CCE080086F4BDE20135F03470C61F8E13
S113E1D00000880097001A50200696038800A7C004
S113E1E096082BF6300126035A270A854027F19614
S113E1F000880035F086D0B800009700BDE31420F5
S113E200EE3470880097001A502006A6C088009744
S113E2100396082BF6854027F89600880035F034DD
S113E220707F0402FC0002BE00048C010027058CF0
S113E23000802610B70403F70404B6040027357CD5
S113E24004022030BE040D7F0403A3032B057C04C9
S113E2500320F7E3037D0400270F740403240A7CDE
S113E26004027D04072602EB045CF70404B60403ED
S113E270A10222034F35F0861035F03470B6040540
S113E2807D040227048A10200284EF34027D0401F5
S113E29026048A20200284DFB70405A1E02708842D
S113E2A07F97041E118A809704B60404880097029D
S113E2B0B6040388009101271197038618BAE00079
S113E2C0880097009608854027FA9600880084D92C
S113E2D0F60000C510270284BF35F0C6078E7FFF05
S113E2E0B604059704960088002A0A301F26F15ABE
S113E2F026EB8680394F398608BAE00088009700FB
S113E30096080D04854027F8960088008564260346
S113E3107F0403398D008D00347635F634708EE336
S113E3203BFC000B8440C4C110A384270930066D54
S113E3300226F58EE33BBF040D35F000004C0008C7
S113E3400000014C00100040004F00050040014F48
S113E35000090040414F000A0000814F00120000F4
S113E360C14F0014000000000000008655B703F8F8
S104E3703B6D
S113FFF0E36BE36BE36BE36BE36BE36BE36BE01AE1
S9
