LS113E000000409061100E1090100E12F9100E15526S113E0108100E164000000001A5010CE044D8E000FS113E02000104FED818C03FF25F98E0400ED818CE7S113E030044D25F98EE2E9BF040A1A5010CE044DAES113E040BDE10527FB108E8000D6098EE0023AF66AS113E0500404C4F03404E684EAE0F70404960C7F74S113E0600408850227047C04084C850126067120D7S113E0700404200472DF0404960B8403B70400969ES113E0800B8540270671400404200472BF0404F683S113E0900404E724BDE2864D2641960A2709BDE221S113E0A0A28495810426340F0AC601F704090F08D7S113E0B0F60404E724BDE2864D2620BDE2C6C6026ES113E0C0F70409960084918EE004A184270A3004A1S113E0D06D8426F686BF2003AD98029708C607F71DS113E0E004094D270CF6040CC801F7040C1026FF94S113E0F0AD128D037EE03AC606F704097F03FF865ES113E100FFB703FE39B603FF39C603F70409BDE1BFS113E110FA4D261AC604F70409BDE2384D260FC687S113E12005F70409CE00209E048688BDE1BE39C6E9S113E13003F70409BDE1FA4D261AC604F70409BD24S113E140E2384D260FC605F70409CE00209E04864AS113E150ACBDE1DC39CE0800109E0486E4BDE1BE0ES113E160BDE0F73934708E080012CE00201086020CS113E17000113831DC06109304240D4FBDE0F76D17S113E18028BDE10527F920E112AEE4C603F704092ES113E19096035F4424015CF70401B704028601B7C7S113E1A00403C604F70409BDE2384D260FC605F77BS113E1B00409CE08009E0486F4BDE1DC35F0347019S113E1C08800A7A41A502006A6238800A7C0A62862S113E1D02BF6854027F8A6A4880035F03470880013S113E1E0A7A41A502006A6C08800A723A6282BF6A9S113E1F0854027F8A6A4880035F034707F0401BE5AS113E200040ADC02109E046FE2A3032B046CE420D6S113E210F8E3037D0400270E64E4240A7C04017DF2S113E22004082602EB045CF704033502B70402A1D8S113E230024F35F0861035F03470718004047D048BS113E24001270671100404200472EF0404B60404C8S113E250A724B604038800A722B604028800A121DBS113E260A7238618BAE0008800A7A4A6288540271BS113E270FAB60404A724A6A4880084D9D600C5103DS113E280270284BF35F0C6078E7FFFA6A488002A24S113E2900EB60404A724301F26F15A26EB86808488S113E2A080395F8608BAE0008800A7A4A6286D24F8S113E2B0854027F87F0402A6A48800851027065D00S113E2C026035C20DE3934708EE2E9DC0B8440C521S113E2D00227015CC4C110A384270930066D0226FDS113E2E0F58EE2E9BF040A35F000004C0008000096S113E2F0014C00100040004F00050040014F000990S113E3000040414F000A0000814F00120000C14F3DS113E3100014000000000000003B8655B703F83BE2S113FFF0E31AE31AE31AE31AE31AE31AE319E0181BS9