LS113E0000002090A0C001100E10D0100E131910048S113E010E1558100E161000000001A5010CE045067S113E02086801F8B113D038E00004F5FED818C03B2S113E030FF25F98E0400ED818C045025F98EE31B35S113E040BF040D1A5010CE0450BDE10927FBF600A1S113E050098EE0023AF60405C4F83404E684EAE0E2S113E060F70405B6E001B7040FB6000C8401B70449S113E07001B6000B7F0407850227037C0407840193S113E080B70400F60405B6000B85402704CA4020F7S113E09002C4BFCA80F70405D704BDE2C14D2643BCS113E0A0B6000A2709BDE2DB8415810426357F000AS113E0B00AC601F7040C7F0008BDE2C14D2624BD49S113E0C0E2FCC602F7040CB6000084918EE006A1BFS113E0D084270D30046D8426F686BFB7000820150AS113E0E0AD9802B70008C607F7040C4D27077A0459S113E0F00F1026FFB0128D037EE043C608F7040C10S113E1007F03FF86FFB703FE39B603FF39C603F763S113E110040CBDE20B4D2618C604F7040CBDE269DDS113E1204D260DC605F7040CCE00208688BDE1C639S113E13039C603F7040CBDE20B4D2618C604F704D8S113E1400CBDE2694D260DC605F7040CCE002086F1S113E150A8BDE1F339CE080086E4BDE1C6BDE0FB0DS113E1603934708E080012CE002010860200113857S113E17031FC000610B30004240D4FBDE0FB0D0874S113E180BDE10927F920DF128601B7040FAEE4C60AS113E19003F7040CB600035F4424015CF70402B7E0S113E1A004032603BDE2DB8601B70404C604F704B6S113E1B00CBDE2694D260DC605F7040CCE08008699S113E1C0F4BDE1F335F03470C61F8E000097001AD9S113E1D05020049603A7C096082BF8300126035A52S113E1E02708854027F1960035F086D09700BDE2D8S113E1F0F420F3347097001A502004A6C0970396B5S113E200082BF8854027F8960035F034707F040217S113E210FC0002BE00048C010027058C008026123DS113E220B70403F70404B60400840327357C04020ES113E2302030BE040D7F0403A3032B057C040320BCS113E240F7E3037D0400270F740403240A7C04020BS113E2507D04072602EB045CF70404B60403A10260S113E26022034F35F0861035F03470B604057D0472S113E2700227048A10200284EF34027D040126045CS113E2808A20200284DFB70405A1E02708847F9751S113E290041E118A809704B604049702B6040391FDS113E2A001270F97038618BAE00097009608854067S113E2B027FA960084D9F60000C510270284BF35DAS113E2C0F0C6078E7FFFB60405970496002A0A302DS113E2D01F26F35A26ED8680394F398608BAE000A6S113E2E0970096080D04854027F896008564260358S113E2F07F0403398D008D00347635F634708EE357S113E3001BFC000B8440C4C110A384270930066D94S113E3100226F58EE31BBF040D35F000004C000807S113E3200000014C00100040004F00050040014F68S113E33000090040414F000A0000814F0012000014S113E340C14F0014000000000000008655B703F818S104E3503B8DS113FFF0E34BE34BE34BE34BE34BE34BE34BE01AC1S9