L
S113E0000002090A0C001100E1110100E135910040
S113E010E1598100E165000000001A5010CE04505F
S113E02086801F8B113D038E00004F5FED818C03B2
S113E030FF25F98E0400ED818C045025F98EE32729
S113E040BF040D1A5010CE0450BDE10D27FBF6009D
S113E050098EE0023AF60405C4F83404E684EAE0E2
S113E060F70405B6E001B7040FB6000C8401B70449
S113E07001B6000B7F0407850227037C0407840193
S113E080B70400F60405B6000B85402704CA4020F7
S113E09002C4BFCA80F70405D704BDE2C5B70008AF
S113E0A027022055B6000A2709BDE2E7841581043A
S113E0B026357F000AC601F7040C7F0008BDE2C5BF
S113E0C04D2624BDE308C602F7040CB60000849173
S113E0D08EE006A184270D30046D8426F686BFB732
S113E0E000082015AD9802B70008C607F7040C4DC8
S113E0F027077A040F1026FFB0128D037EE043C673
S113E10008F7040C7F03FF86FFB703FE39B603FF4D
S113E11039C603F7040CBDE20F4D2618C604F704F4
S113E1200CBDE26D4D260DC605F7040CCE0020860D
S113E13088BDE1CA39C603F7040CBDE20F4D2618A9
S113E140C604F7040CBDE26D4D260DC605F7040C9C
S113E150CE002086A8BDE1F739CE080086E4BDE1F3
S113E160CABDE0FF3934708E080012CE002010863C
S113E1700200113831FC000610B30004240D4FBD19
S113E180E0FF0D08BDE10D27F920DF128601B70479
S113E1900FAEE4C603F7040CB600035F4424015C2D
S113E1A0F70402B704032603BDE2E78601B70404BB
S113E1B0C604F7040CBDE26D4D260DC605F7040C2C
S113E1C0CE080086F4BDE1F735F03470C61F8E002A
S113E1D00097001A5020049603A7C096082BF83025
S113E1E00126035A2708854027F1960035F086D08A
S113E1F09700BDE30020F3347097001A502004A662
S113E200C0970396082BF8854027F8960035F0341C
S113E210707F0402FC0002BE00048C010027058C00
S113E22000802612B70403F70404B604008403270D
S113E230357C04022030BE040D7F0403A3032B05A8
S113E2407C040320F7E3037D0400270F74040324F4
S113E2500A7C04027D04072602EB045CF70404B67E
S113E2600403A10222034F35F0861035F03470B652
S113E27004057D040227048A10200284EF34027D01
S113E280040126048A20200284DFB70405A1E027C4
S113E29008847F97041E118A809704B604049702A9
S113E2A0B604039101270F97038618BAE00097007C
S113E2B09608854027FA960084D9F60000C51027F1
S113E2C00284BF35F0C607B604059704BDE3008E8B
S113E2D07FFFB60405970496002A0A301F26F35AD6
S113E2E026ED8680394F398608BAE00097009608F3
S113E2F00D04854027F89600856426037F040339BE
S113E3008D008D00347635F634708EE327FC000BD7
S113E3108440C4C110A384270930066D0226F58EFB
S113E320E327BF040D35F000004C00080000014C49
S113E33000100040004F00050040014F000900405C
S113E340414F000A0000814F00120000C14F001429
S110E350000000000000008655B703F83BF4
S113FFF0E357E357E357E357E357E357E357E01A6D
S9
